{
    "contractName": "Resolver",
    "abi": [
        {
            "inputs": [
                {
                    "internalType": "address",
                    "name": "_fallback",
                    "type": "address"
                }
            ],
            "stateMutability": "nonpayable",
            "type": "constructor"
        },
        {
            "anonymous": false,
            "inputs": [
                {
                    "indexed": false,
                    "internalType": "address",
                    "name": "oldFallback",
                    "type": "address"
                },
                {
                    "indexed": false,
                    "internalType": "address",
                    "name": "newFallback",
                    "type": "address"
                }
            ],
            "name": "FallbackChanged",
            "type": "event"
        },
        {
            "inputs": [],
            "name": "admin",
            "outputs": [
                {
                    "internalType": "address",
                    "name": "",
                    "type": "address"
                }
            ],
            "stateMutability": "view",
            "type": "function"
        },
        {
            "inputs": [
                {
                    "internalType": "bytes4",
                    "name": "_sig",
                    "type": "bytes4"
                }
            ],
            "name": "destination",
            "outputs": [
                {
                    "internalType": "address",
                    "name": "",
                    "type": "address"
                }
            ],
            "stateMutability": "view",
            "type": "function"
        },
        {
            "inputs": [
                {
                    "internalType": "bytes4",
                    "name": "_sig",
                    "type": "bytes4"
                }
            ],
            "name": "dynamicLength",
            "outputs": [
                {
                    "internalType": "uint256",
                    "name": "_outsize",
                    "type": "uint256"
                }
            ],
            "stateMutability": "nonpayable",
            "type": "function"
        },
        {
            "inputs": [],
            "name": "fallbackAddr",
            "outputs": [
                {
                    "internalType": "address",
                    "name": "",
                    "type": "address"
                }
            ],
            "stateMutability": "view",
            "type": "function"
        },
        {
            "inputs": [
                {
                    "internalType": "bytes4",
                    "name": "",
                    "type": "bytes4"
                }
            ],
            "name": "lengthPointers",
            "outputs": [
                {
                    "internalType": "bytes4",
                    "name": "sig",
                    "type": "bytes4"
                },
                {
                    "internalType": "address",
                    "name": "destination",
                    "type": "address"
                }
            ],
            "stateMutability": "view",
            "type": "function"
        },
        {
            "inputs": [
                {
                    "internalType": "bytes4",
                    "name": "sig",
                    "type": "bytes4"
                },
                {
                    "internalType": "bytes",
                    "name": "msgData",
                    "type": "bytes"
                }
            ],
            "name": "lookup",
            "outputs": [
                {
                    "internalType": "address",
                    "name": "",
                    "type": "address"
                },
                {
                    "internalType": "uint256",
                    "name": "",
                    "type": "uint256"
                }
            ],
            "stateMutability": "nonpayable",
            "type": "function"
        },
        {
            "inputs": [
                {
                    "internalType": "bytes4",
                    "name": "_sig",
                    "type": "bytes4"
                }
            ],
            "name": "outsize",
            "outputs": [
                {
                    "internalType": "uint256",
                    "name": "",
                    "type": "uint256"
                }
            ],
            "stateMutability": "nonpayable",
            "type": "function"
        },
        {
            "inputs": [
                {
                    "internalType": "bytes4",
                    "name": "",
                    "type": "bytes4"
                }
            ],
            "name": "pointers",
            "outputs": [
                {
                    "internalType": "address",
                    "name": "destination",
                    "type": "address"
                },
                {
                    "internalType": "uint256",
                    "name": "outsize",
                    "type": "uint256"
                }
            ],
            "stateMutability": "view",
            "type": "function"
        },
        {
            "inputs": [
                {
                    "internalType": "string",
                    "name": "_signature",
                    "type": "string"
                },
                {
                    "internalType": "address",
                    "name": "_destination",
                    "type": "address"
                },
                {
                    "internalType": "uint256",
                    "name": "_outsize",
                    "type": "uint256"
                }
            ],
            "name": "register",
            "outputs": [],
            "stateMutability": "nonpayable",
            "type": "function"
        },
        {
            "inputs": [
                {
                    "internalType": "string",
                    "name": "_mainSignature",
                    "type": "string"
                },
                {
                    "internalType": "string",
                    "name": "_lengthSignature",
                    "type": "string"
                },
                {
                    "internalType": "address",
                    "name": "_destination",
                    "type": "address"
                }
            ],
            "name": "registerLengthFunction",
            "outputs": [],
            "stateMutability": "nonpayable",
            "type": "function"
        },
        {
            "inputs": [
                {
                    "internalType": "contract Resolver",
                    "name": "_replacement",
                    "type": "address"
                }
            ],
            "name": "replace",
            "outputs": [],
            "stateMutability": "nonpayable",
            "type": "function"
        },
        {
            "inputs": [],
            "name": "replacement",
            "outputs": [
                {
                    "internalType": "contract Resolver",
                    "name": "",
                    "type": "address"
                }
            ],
            "stateMutability": "view",
            "type": "function"
        },
        {
            "inputs": [
                {
                    "internalType": "address",
                    "name": "_admin",
                    "type": "address"
                }
            ],
            "name": "setAdmin",
            "outputs": [],
            "stateMutability": "nonpayable",
            "type": "function"
        },
        {
            "inputs": [
                {
                    "internalType": "address",
                    "name": "_fallback",
                    "type": "address"
                }
            ],
            "name": "setFallback",
            "outputs": [],
            "stateMutability": "nonpayable",
            "type": "function"
        },
        {
            "inputs": [
                {
                    "internalType": "string",
                    "name": "signature",
                    "type": "string"
                }
            ],
            "name": "stringToSig",
            "outputs": [
                {
                    "internalType": "bytes4",
                    "name": "",
                    "type": "bytes4"
                }
            ],
            "stateMutability": "pure",
            "type": "function"
        }
    ],
    "bytecode": "608060405234801561001057600080fd5b50604051610c76380380610c7683398101604081905261002f91610062565b60028054336001600160a01b031991821617909155600180549091166001600160a01b0392909216919091179055610092565b60006020828403121561007457600080fd5b81516001600160a01b038116811461008b57600080fd5b9392505050565b610bd5806100a16000396000f3fe608060405234801561001057600080fd5b50600436106100f55760003560e01c80637d57a82011610097578063d393c87111610066578063d393c8711461029c578063dee08903146102af578063f851a440146102c2578063fe3ce632146102d557600080fd5b80637d57a82014610203578063b5d7ccc314610224578063c3df572e14610276578063cabfb9341461028957600080fd5b806332b12eac116100d357806332b12eac1461019e5780634804a83d146101b1578063704b6c02146101c45780637c34752f146101d757600080fd5b806318b31f94146100fa5780632bdb1b2b1461010f5780632eef226914610173575b600080fd5b61010d61010836600461088a565b6102e8565b005b61014661011d36600461091a565b60046020526000908152604090205460e081901b9064010000000090046001600160a01b031682565b604080516001600160e01b031990931683526001600160a01b039091166020830152015b60405180910390f35b600354610186906001600160a01b031681565b6040516001600160a01b03909116815260200161016a565b61010d6101ac36600461093c565b6103ad565b600154610186906001600160a01b031681565b61010d6101d236600461093c565b610440565b6101ea6101e5366004610959565b61048c565b6040516001600160e01b0319909116815260200161016a565b61021661021136600461091a565b6104bd565b60405190815260200161016a565b61025761023236600461091a565b600060208190529081526040902080546001909101546001600160a01b039091169082565b604080516001600160a01b03909316835260208301919091520161016a565b61018661028436600461091a565b61054b565b61010d61029736600461093c565b61058d565b61010d6102aa366004610996565b6105d9565b6102166102bd36600461091a565b610672565b600254610186906001600160a01b031681565b6102576102e33660046109f0565b61071b565b6002546001600160a01b0316331461031b5760405162461bcd60e51b815260040161031290610a73565b60405180910390fd5b604051806040016040528061032f8461048c565b6001600160e01b03191681526001600160a01b038316602090910152600460006103588661048c565b6001600160e01b03191681526020808201929092526040016000208251815493909201516001600160a01b0316640100000000026001600160c01b031990931660e09290921c91909117919091179055505050565b6002546001600160a01b031633146103d75760405162461bcd60e51b815260040161031290610a73565b600154604080516001600160a01b03928316815291831660208301527f956bc7bb3e930dc2954eadc98a77c9c0c31a0f3f5790632f1c703653863eff86910160405180910390a1600180546001600160a01b0319166001600160a01b0392909216919091179055565b6002546001600160a01b0316331461046a5760405162461bcd60e51b815260040161031290610a73565b600280546001600160a01b0319166001600160a01b0392909216919091179055565b60008160405160200161049f9190610aaa565b6040516020818303038152906040526104b790610aff565b92915050565b6001600160e01b0319811660009081526004602052604081205464010000000090046001600160a01b0316156104f6576104b782610672565b6001600160e01b031982166000908152602081905260409020546001600160a01b03161561053e57506001600160e01b03191660009081526020819052604090206001015490565b506020919050565b919050565b6001600160e01b031981166000908152602081905260408120546001600160a01b0316801561057a5792915050565b50506001546001600160a01b0316919050565b6002546001600160a01b031633146105b75760405162461bcd60e51b815260040161031290610a73565b600380546001600160a01b0319166001600160a01b0392909216919091179055565b6002546001600160a01b031633146106035760405162461bcd60e51b815260040161031290610a73565b6040518060400160405280836001600160a01b031681526020018281525060008061062d8661048c565b6001600160e01b0319168152602080820192909252604001600020825181546001600160a01b0319166001600160a01b03909116178155910151600190910155505050565b6001600160e01b03198116600090815260046020819052604080832054815160e082901b90819052915184936401000000009092046001600160a01b03169291366003190191810137602060405136604051856102bc5a03f492506020604051029350826001146107135760405162461bcd60e51b815260206004820152600b60248201526a10d85b1b0819985a5b195960aa1b6044820152606401610312565b505050919050565b60035460009081906001600160a01b0316156107b057600354604051637f1e731960e11b81526001600160a01b039091169063fe3ce6329061076590889088908890600401610b32565b60408051808303816000875af1158015610783573d6000803e3d6000fd5b505050506040513d601f19601f820116820180604052508101906107a79190610b71565b915091506107c7565b6107b98561054b565b6107c2866104bd565b915091505b935093915050565b634e487b7160e01b600052604160045260246000fd5b600082601f8301126107f657600080fd5b813567ffffffffffffffff80821115610811576108116107cf565b604051601f8301601f19908116603f01168101908282118183101715610839576108396107cf565b8160405283815286602085880101111561085257600080fd5b836020870160208301376000602085830101528094505050505092915050565b6001600160a01b038116811461088757600080fd5b50565b60008060006060848603121561089f57600080fd5b833567ffffffffffffffff808211156108b757600080fd5b6108c3878388016107e5565b945060208601359150808211156108d957600080fd5b506108e6868287016107e5565b92505060408401356108f781610872565b809150509250925092565b80356001600160e01b03198116811461054657600080fd5b60006020828403121561092c57600080fd5b61093582610902565b9392505050565b60006020828403121561094e57600080fd5b813561093581610872565b60006020828403121561096b57600080fd5b813567ffffffffffffffff81111561098257600080fd5b61098e848285016107e5565b949350505050565b6000806000606084860312156109ab57600080fd5b833567ffffffffffffffff8111156109c257600080fd5b6109ce868287016107e5565b93505060208401356109df81610872565b929592945050506040919091013590565b600080600060408486031215610a0557600080fd5b610a0e84610902565b9250602084013567ffffffffffffffff80821115610a2b57600080fd5b818601915086601f830112610a3f57600080fd5b813581811115610a4e57600080fd5b876020828501011115610a6057600080fd5b6020830194508093505050509250925092565b60208082526018908201527f5065726d697373696f6e206f6e6c7920696e2041646d696e0000000000000000604082015260600190565b600060208083528351808285015260005b81811015610ad757858101830151858201604001528201610abb565b81811115610ae9576000604083870101525b50601f01601f1916929092016040019392505050565b805160208201516001600160e01b031980821692919060048310156107135760049290920360031b82901b161692915050565b63ffffffff60e01b8416815260406020820152816040820152818360608301376000818301606090810191909152601f909201601f1916010192915050565b60008060408385031215610b8457600080fd5b8251610b8f81610872565b602093909301519294929350505056fea264697066735822122068263cdbd589249a787b9318dc7b75fd4164510ff317b9c7a3994a7c0b86087d64736f6c634300080b0033",
    "sourcePath": "f:/Blockchain/Solidity/coding-challenge-sc/contracts/Resolver.sol",
    "compiler": {
        "name": "solc",
        "version": "0.8.11+commit.d7f03943"
    },
    "functionHashes": {
        "admin()": "f851a440",
        "destination(bytes4)": "c3df572e",
        "dynamicLength(bytes4)": "dee08903",
        "fallbackAddr()": "4804a83d",
        "lengthPointers(bytes4)": "2bdb1b2b",
        "lookup(bytes4,bytes)": "fe3ce632",
        "outsize(bytes4)": "7d57a820",
        "pointers(bytes4)": "b5d7ccc3",
        "register(string,address,uint256)": "d393c871",
        "registerLengthFunction(string,string,address)": "18b31f94",
        "replace(address)": "cabfb934",
        "replacement()": "2eef2269",
        "setAdmin(address)": "704b6c02",
        "setFallback(address)": "32b12eac",
        "stringToSig(string)": "7c34752f"
    },
    "gasEstimates": {
        "creation": {
            "codeDepositCost": "605800",
            "executionCost": "infinite",
            "totalCost": "infinite"
        },
        "external": {
            "admin()": "2403",
            "destination(bytes4)": "4817",
            "dynamicLength(bytes4)": "infinite",
            "fallbackAddr()": "2382",
            "lengthPointers(bytes4)": "2664",
            "lookup(bytes4,bytes)": "infinite",
            "outsize(bytes4)": "infinite",
            "pointers(bytes4)": "4757",
            "register(string,address,uint256)": "infinite",
            "registerLengthFunction(string,string,address)": "infinite",
            "replace(address)": "26794",
            "replacement()": "2405",
            "setAdmin(address)": "26772",
            "setFallback(address)": "30189",
            "stringToSig(string)": "infinite"
        }
    }
}